:100000000C9434000C9446000C9446000C9446006A
:100010000C9446000C9446000C9446000C94CC00C2
:100020000C9446000C9446000C9446000C94460038
:100030000C9446000C9446000C9446000C94460028
:100040000C9446000C9446000C9446000C94460018
:100050000C9446000C9446000C9446000C94460008
:100060000C9446000C94460011241FBECFEFD8E03C
:10007000DEBFCDBF21E0A0E0B1E001C01D92A43001
:10008000B207E1F70E94EF000C9415010C940000F8
:1000900082E08093B00094E09093B1008093700070
:1000A00089EF8093B3000895CF93DF9300D000D001
:1000B000CDB7DEB78FB7F8942091000130910101E0
:1000C000409102015091030129833A834B835C8361
:1000D0008FBF69817A818B819C810F900F900F90E7
:1000E0000F90DF91CF910895E4E6F0E080818F7B5F
:1000F0008083E0E7F0E08081826080830895E0E71C
:10010000F0E080818D7F8083E4E6F0E08081806490
:10011000808308958FB7F894109200011092010126
:1001200010920201109203018FBF0895462F572F9E
:10013000BC012FB7F8948091000190910101A0912A
:100140000201B0910301840F951FA61FB71F809372
:10015000000190930101A0930201B09303012FBF0E
:100160000895462F572FBC012FB7F89480910001B6
:1001700090910101A0910201B0910301841B950BA4
:10018000A60BB70B8093000190930101A09302018D
:10019000B09303012FBF08951F921FB61F92112421
:1001A0008F939F93AF93BF93809100019091010132
:1001B000A0910201B09103010196A11DB11D809390
:1001C000000190930101A0930201B0930301BF913C
:1001D000AF919F918F911F901FBE1F90189500D0D7
:1001E00000D0CDB7DEB70E9448000E9454006B01DA
:1001F0007C017894259A0E94540069837A838B83CA
:100200009C83DC01CB018C199D09AE09BF098536A1
:100210009105A105B10578F385B190E2892785B9EB
:0E0220000E9454006B017C01E6CFF894FFCFE2
:00000001FF
