:100000000C9434000C9451000C9451000C94510049
:100010000C9451000C9451000C9451000C9451001C
:100020000C9451000C9451000C9451000C9451000C
:100030000C9451000C9451000C9451000C945100FC
:100040000C9451000C9451000C9451000C945100EC
:100050000C9451000C9451000C9451000C945100DC
:100060000C9451000C94510011241FBECFEFD8E026
:10007000DEBFCDBF11E0A0E0B1E0EAE3F1E002C0F5
:1000800005900D92A630B107D9F721E0A6E0B1E0C6
:1000900001C01D92AC30B207E1F70E946D000C94D4
:1000A0009B000C940000259A2D9A2FEF83ED90E38E
:1000B000215080409040E1F700C000002D982FEFC4
:1000C00089E698E1215080409040E1F700C00000AF
:1000D00080E091E00E946F00E7CF0E9453000F93F1
:1000E0001F93CF93DF93E0910801F09109012381E1
:1000F00000E010E021FD0EC00FEF1FEFC801DF91FF
:10010000CF911F910F9108950995892B11F00FEF51
:100110001FEFCE01EC0189916091080170910901F6
:10012000DB011896ED91FC918111EECF8AE00995E3
:0A013000892B21F3E1CFF894FFCFF3
:06013A0048656C6C6F00CB
:00000001FF
