:100000000C9434000C9446000C9446000C9446006A
:100010000C9446000C9446000C9446000C94460048
:100020000C9446000C9446000C9446000C94480036
:100030000C9446000C9446000C9446000C94460028
:100040000C9446000C9446000C9446000C94460018
:100050000C9446000C9446000C9446000C94460008
:100060000C9446000C94460011241FBECFEFD8E03C
:10007000DEBFCDBF21E0A0E0B1E001C01D92A43001
:10008000B207E1F70E94B3000C94FF000C9400004B
:100090001F921FB61F9211248F939F93AF93BF930C
:1000A0008091000190910101A0910201B0910301A2
:1000B0000196A11DB11D8093000190930101A093B1
:1000C0000201B0930301BF91AF919F918F911F9057
:1000D0001FBE1F901895CF93DF9300D000D0CDB7EF
:1000E000DEB769837A838B839C8320E43FE140E021
:1000F00050E00E94DD00E1E8F0E080818A608083CA
:10010000BB27A52F942F832F8093890020938800ED
:10011000EFE6F0E08081826080830F900F900F9077
:100120000F90DF91CF910895CF93DF9300D000D04F
:10013000CDB7DEB7F8948091000190910101A091B4
:100140000201B091030189839A83AB83BC837894C5
:1001500069817A818B819C810F900F900F900F9015
:10016000DF91CF91089500D000D0CDB7DEB760E029
:1001700074E284EF90E00E946B000E9494006B0197
:100180007C017894259A0E94940069837A838B83FA
:100190009C83DC01CB018C199D09AE09BF09853F09
:1001A0009140A105B10578F385B190E2892785B921
:1001B0000E9494006B017C01E6CFA1E21A2EAA1BDB
:1001C000BB1BFD010DC0AA1FBB1FEE1FFF1FA21707
:1001D000B307E407F50720F0A21BB30BE40BF50B04
:1001E000661F771F881F991F1A9469F7609570958D
:1001F000809590959B01AC01BD01CF010895F894C5
:02020000FFCF2E
:00000001FF
